:100000000C9462000C9428030C9401030C948A0055
:100010000C948A000C948A000C948A000C948A0038
:100020000C948A000C948A000C948A000C948A0028
:100030000C948A000C948A000C948A000C948A0018
:100040000C94B7020C948A000C9475030C944F0323
:100050000C948A000C948A000C948A000C948A00F8
:100060000C948A000C948A000000000024002700F1
:100070002A000000000023002600290000000000E4
:10008000250028002B0004040404040404040202D4
:100090000202020203030303030301020408102007
:1000A0004080010204081020010204081020000012
:1000B0000008000201000003040700000000000027
:1000C0000000A70311241FBECFEFD8E0DEBFCDBFD5
:1000D00011E0A0E0B1E0E8EDF8E102C005900D927A
:1000E000A033B107D9F722E0A0E3B1E001C01D922F
:1000F000A837B207E1F710E0C2E6D0E004C02197CC
:10010000FE010E94640CC136D107C9F70E944E0659
:100110000C946A0C0C940000833081F028F4813038
:1001200099F08230A9F008958730A9F08830C9F09D
:100130008430B1F4809180008F7D03C08091800075
:100140008F7780938000089584B58F7784BD08955C
:1001500084B58F7DFBCF8091B0008F778093B00006
:1001600008958091B0008F7DF9CF1F93CF93DF93D7
:10017000E7EBF0E09491E3EAF0E0D491EFE8F0E00F
:10018000C491CC23B9F0182F992319F0892F0E941C
:100190008C00EC2FF0E0EE0FFF1FE458FF4FA5910D
:1001A000B4918FB7F894EC91111108C0D095DE236B
:1001B000DC938FBFDF91CF911F910895DE2BF8CF95
:1001C000CF93DF93282F30E0F901E255FF4F849160
:1001D000F901E656FF4FD491F901EA57FF4FC49158
:1001E000CC23A1F081110E948C00EC2FF0E0EE0FE7
:1001F000FF1FEE58FF4FA591B491EC91ED2381E0E4
:1002000090E009F480E0DF91CF91089580E090E0E4
:10021000FACFCF93DF9390E0FC01E656FF4F249195
:100220008A579F4FFC0184918823D1F090E0880F7A
:10023000991FFC01E859FF4FA591B491FC01E458C6
:10024000FF4FC591D491623071F49FB7F8943C91FF
:10025000822F809583238C93E8812E2B28839FBF48
:10026000DF91CF9108958FB7F894EC912E2B2C93BA
:100270008FBFF6CF0895AF92BF92CF92DF92EF92E9
:10028000FF920F931F93CF93DF936C017B018B0140
:10029000040F151FEB015E01AE18BF08C017D10790
:1002A00059F06991D601ED91FC910190F081E02D1A
:1002B000C6010995892B79F7C501DF91CF911F916F
:1002C0000F91FF90EF90DF90CF90BF90AF90089587
:1002D000FC01538D448D252F30E0842F90E0821B4C
:1002E000930B541710F0CF96089501970895FC01D1
:1002F000918D828D981761F0A28DAE0FBF2FB11D29
:100300005D968C91928D9F5F9F73928F90E0089580
:100310008FEF9FEF0895FC01918D828D981731F03A
:10032000828DE80FF11D858D90E008958FEF9FEF8E
:100330000895FC01918D228D892F90E0805C9F4F64
:10034000821B91098F739927089585E491E00E949B
:10035000990121E0892B09F420E0822F089580E0A3
:1003600090E0892B29F00E94A50181110C940000D6
:100370000895FC01A48DA80FB92FB11DA35ABF4F3A
:100380002C91848D90E001968F739927848FA68994
:10039000B7892C93A089B1898C91837080648C93E8
:1003A000938D848D981306C00288F389E02D808197
:1003B0008F7D80830895EF92FF920F931F93CF93C9
:1003C000DF93EC0181E0888F9B8D8C8D98131AC090
:1003D000E889F989808185FF15C09FB7F894EE8977
:1003E000FF896083E889F9898081837080648083D4
:1003F0009FBF81E090E0DF91CF911F910F91FF901F
:10040000EF900895F62E0B8D10E00F5F1F4F0F73C6
:100410001127E02E8C8D8E110CC00FB607FCFACF81
:10042000E889F989808185FFF5CFCE010E94B90165
:10043000F1CFEB8DEC0FFD2FF11DE35AFF4FF08252
:100440009FB7F8940B8FEA89FB8980818062CFCFB8
:10045000CF93DF93EC01888D8823B9F0AA89BB89FB
:10046000E889F9898C9185FD03C0808186FD0DC0E6
:100470000FB607FCF7CF8C9185FFF2CF808185FF07
:10048000EDCFCE010E94B901E9CFDF91CF91089560
:10049000CF93DF9382E00E94E000EC0183E00E94B2
:1004A000E000C817D90761F480913A0190913B01AF
:1004B000019690933B0180933A01DF91CF9108958B
:1004C00080913A0190913B010197F3CFFC0101909B
:1004D0000020E9F73197AF01481B590BBC0185E4B7
:1004E00091E00C943B018F929F92AF92BF920F9339
:1004F0001F93CF93DF93CDB7DEB7A1970FB6F894D4
:10050000DEBF0FBECDBF19A2423008F44AE08E0113
:100510000F5D1F4F842E912CB12CA12CA5019401AD
:100520000E94420CE62FB901CA01EA30F4F4E05D02
:10053000D801EE938D01232B242B252B79F790E006
:1005400080E0109719F0CD010E946602A1960FB6C7
:10055000F894DEBF0FBECDBFDF91CF911F910F91F9
:10056000BF90AF909F908F900895E95CE1CF1F926C
:100570000F920FB60F9211242F933F938F939F9357
:10058000AF93BF938091E2019091E301A091E401C8
:10059000B091E5013091440123E0230F2D3758F548
:1005A0000196A11DB11D209344018093E201909317
:1005B000E301A093E401B093E501809140019091A3
:1005C0004101A0914201B09143010196A11DB11DCD
:1005D0008093400190934101A0934201B093430165
:1005E000BF91AF919F918F913F912F910F900FBE2F
:1005F0000F901F90189526E8230F0296A11DB11D9C
:10060000D2CF1F920F920FB60F9211242F933F93C8
:100610004F935F936F937F938F939F93AF93BF930A
:10062000EF93FF93E0910201F09103010995FF918F
:10063000EF91BF91AF919F918F917F916F915F915A
:100640004F913F912F910F900FBE0F901F901895D3
:100650001F920F920FB60F9211242F933F934F9337
:100660005F936F937F938F939F93AF93BF93EF931A
:10067000FF93E0910001F09101010995FF91EF9145
:10068000BF91AF919F918F917F916F915F914F91AA
:100690003F912F910F900FBE0F901F9018951F92B2
:1006A0000F920FB60F9211242F933F934F935F93A6
:1006B0006F937F938F939F93AF93BF93EF93FF932A
:1006C00085E491E00E94B901FF91EF91BF91AF9154
:1006D0009F918F917F916F915F914F913F912F915A
:1006E0000F900FBE0F901F9018951F920F920FB68C
:1006F0000F9211242F938F939F93EF93FF93E09189
:100700005501F09156018081E0915B01F0915C010F
:1007100082FD1BC0908180915E018F5F8F7320915D
:100720005F01821741F0E0915E01F0E0EB5BFE4F6C
:10073000958F80935E01FF91EF919F918F912F9103
:100740000F900FBE0F901F9018958081F4CF2F92BD
:100750003F924F925F926F927F928F929F92AF9251
:10076000BF92CF92DF92EF92FF920F931F93CF939E
:10077000DF93CDB7DEB728970FB6F894DEBF0FBE74
:10078000CDBF109248011092470188EE93E0A0E09F
:10079000B0E08093490190934A01A0934B01B0933C
:1007A0004C018CE091E0909346018093450185ECEB
:1007B00090E0909352018093510184EC90E09093EB
:1007C00054018093530180EC90E090935601809304
:1007D000550181EC90E0909358018093570182EC91
:1007E00090E090935A018093590186EC90E09093A9
:1007F0005C0180935B0110925E0110925F01109288
:10080000600110926101E4E3F2E0F0935B02E09397
:100810005A0298E3492E92E0592E50925902409282
:10082000580224E0622E21E0722E70925D026092E6
:100830005C021092760210926E0210926F02109279
:10084000700210927102C12CD12C3FE7E32E33E4E9
:10085000F32EC0927202D0927302E0927402F09270
:10086000750284E690E0A0E0B0E080936A02909385
:100870006B02A0936C02B0936D021092550210921D
:100880005402A1E0B0E0B0935702A0935602222494
:1008900023942092770280E090E0A0E0B0E480937F
:1008A0003C0290933D02A0933E02B0933F0200E0D1
:1008B00010E020EA30E400934002109341022093BC
:1008C00042023093430240E050E060E87FE340930F
:1008D000440250934502609346027093470280930E
:1008E000480290934902A0934A02B0934B020F2E04
:1008F000412C512C612CFFE37F2EF02D40924C02B5
:1009000050924D0260924E0270924F020F2E812C37
:10091000912CF0E2AF2EF1E4BF2EF02D8092500228
:1009200090925102A0925202B09253027FB6F89474
:10093000C090E201D090E301E090E401F090E50185
:100940007FBE40906A0250906B0260906C02709083
:100950006D02C418D508E608F708C0925E02D0926E
:100960005F02E0926002F09261020F2EF8E36F2EB8
:10097000F2E07F2EF02D7092E7016092E601F09395
:10098000E901E093E8010F2EF4E0CF2EF1E0DF2E35
:10099000F02DD092EB01C092EA018093EC0190938C
:1009A000ED01A093EE01B093EF010093F0011093DD
:1009B000F1012093F2013093F3014093F40150933D
:1009C000F5016093F6017093F701F0931702E0933D
:1009D00016027092150260921402D0921902C0920F
:1009E00018021092320210922A0210922B021092D8
:1009F0002C0210922D02412C512CEFE76E2EE3E4D5
:100A00007E2E40922E0250922F02609230027092FF
:100A10003102F4E6CF2ED12CE12CF12CC09226022B
:100A2000D0922702E0922802F0922902109211023D
:100A300010921002EE24E394F12CF0921302E09253
:100A40001202209233028093F8019093F901A0934F
:100A5000FA01B093FB010093FC011093FD01209378
:100A6000FE013093FF014093000250930102609316
:100A70000202709303028093040290930502A093F4
:100A80000602B093070280E090E0A0E0BFE380930D
:100A9000080290930902A0930A02B0930B0280927D
:100AA0000C0290920D02A0920E02B0920F022FB78C
:100AB000F8948091E2019091E301A091E401B0915A
:100AC000E5012FBF40912602509127026091280234
:100AD00070912902841B950BA60BB70B80931A0209
:100AE00090931B02A0931C02B0931D0280913202CE
:100AF00040901602509017025A824982811146C0D6
:100B0000D201CD90DD90ED90FC90C0921E02D0926B
:100B10001F02E0922002F0922102E0911402F09173
:100B2000150280819181A281B381809322029093EA
:100B30002302A0932402B093250280902E0290906D
:100B40002F02A0903002B0903102A5019401C7019C
:100B5000B6010E94CB0B18164CF480921E029092A4
:100B60001F02A0922002B092210210C080902A029F
:100B700090902B02A0902C02B0902D02A501940120
:100B8000C701B6010E946C0A87FDE7CF81E0809320
:100B9000320210922A0210922B0210922C02109212
:100BA0002D02812C912C8FE7A82E83E4B82E809201
:100BB0002E0290922F02A0923002B0923102E9816F
:100BC000FA81C080D180E280F380A5019401C70141
:100BD000B6010E94CB0B181644F5A981BA818D92FB
:100BE0009D92AD92BC92139780901E0290901F022E
:100BF000A0902002B0902102C0902E02D0902F022F
:100C0000E0903002F0903102A7019601C501B401D5
:100C10000E94CB0B1816CCF4C0921E02D0921F0279
:100C2000E0922002F092210220C020E030E0A901F1
:100C3000C701B6010E946C0A87FFD6CFE981FA810D
:100C40001082118212821382CFCFC0902A02D090DC
:100C50002B02E0902C02F0902D02A7019601C50115
:100C6000B4010E946C0A87FDD7CF28960FB6F8947E
:100C7000DEBF0FBECDBFDF91CF911F910F91FF90CF
:100C8000EF90DF90CF90BF90AF909F908F907F902C
:100C90006F905F904F903F902F900895CF93DF9388
:100CA000CDB7DEB72E970FB6F894DEBF0FBECDBF1F
:100CB000789484B5826084BD84B5816084BD85B537
:100CC000826085BD85B5816085BD80916E00816043
:100CD00080936E00109281008091810082608093E9
:100CE00081008091810081608093810080918000EB
:100CF0008160809380008091B10084608093B10016
:100D00008091B00081608093B00080917A0084600F
:100D100080937A0080917A00826080937A0080913B
:100D20007A00816080937A0080917A008068809355
:100D30007A001092C10061E089E00E94090162E03E
:100D400082E00E94090162E083E00E94090188E4D8
:100D500092E090930101809300018091690083608B
:100D600080936900E89AE0915501F091560182E084
:100D70008083E0915101F09152011082E091530182
:100D8000F09154018FEC808310925D01E091590144
:100D9000F0915A0186E08083E0915701F09158016B
:100DA000808180618083E0915701F09158018081BA
:100DB00088608083E0915701F091580180818068BC
:100DC0008083E0915701F091580180818F7D80836D
:100DD0002FB7F8948091E2019091E301A091E40192
:100DE000B091E5012FBF40913C0150913D016091D0
:100DF0003E0170913F01841B950BA60BB70B883EFB
:100E00009340A105B10508F480C08FB7F894C09055
:100E1000E201D090E301E090E401F090E5018FBFA2
:100E200040913A0150913B018091380190913901F4
:100E3000481B590B5A83498380913A0190913B0199
:100E4000909339018093380180913401909135015C
:100E5000A0913601B0913701A7019601281B390BEB
:100E60004A0B5B0BCA01B9010E94190B20E030E666
:100E70004AE657E40E94710A4B015C01C0923401BA
:100E8000D0923501E0923601F092370149815A81C2
:100E9000BA01550F880B990B0E941B0B20E030E024
:100EA00040EA51E40E94710AA50194010E94710A6E
:100EB000609338027093390280933A0290933B0218
:100EC000C0923C01D0923D01E0923E01F0923F0180
:100ED0008AE191E00E946602C0903802D090390207
:100EE000E0903A02F0903B02A7019601C701B601DB
:100EF0000E943D0C882309F48AC180E291E00E949F
:100F000066028CE291E00E946602809132028823A0
:100F100009F433C18FB7F8942091E2013091E301D5
:100F20004091E4015091E50129873A874B875C871E
:100F30008FBF80911A0290911B02A0911C02B09168
:100F40001D0249855A856B857C85481B590B6A0BA8
:100F50007B0B8091260290912702A0912802B091EC
:100F60002902481759076A077B0708F406C1E09170
:100F70001402F091150280819181A281B38189834D
:100F80009A83AB83BC83E0911802F09119029C0113
:100F9000AD0160817181828193810E94FF094B01C3
:100FA0005C01209122023091230240912402509151
:100FB000250269817A818B819C810E94FF096B01E6
:100FC0007C01209108023091090240910A0250915F
:100FD0000B02C501B4010E94D00B20911E0230917A
:100FE0001F0240912002509121020E94000A2B0111
:100FF0003C0140921E0250921F02609220027092A9
:1010000021023090330231101AC020910402309135
:1010100005024091060250910702C701B6010E94E5
:10102000D00B9B01AC01C301B2010E94FF09609388
:101030001E0270931F028093200290932102409021
:101040001E0250901F0260902002709021021091A9
:101050002E0290912F029E87A0913002AD870091C1
:101060003102212F392F4A2F502FC301B2010E9484
:10107000CB0B18160CF05DC1812F9E85AD85B02F6E
:1010800080931E0290931F02A0932002B09321022E
:10109000332009F465C1209104023091050240918A
:1010A000060250910702C501B4010E94D00B4B010A
:1010B0005C0120910C0230910D0240910E02509182
:1010C0000F02C701B6010E94D00B9B01AC016091D9
:1010D0001E0270911F0280912002909121020E94B5
:1010E000FF09A50194010E94000A6B017C019B018C
:1010F000AC01612F7E858D85902F0E946C0A87FD43
:1011000018C010912A0290912B029E87A0912C0268
:10111000AD8700912D02212F392F4A2F502FB60174
:10112000C7010E946C0A87FD04C01C2DDE86ED8677
:101130000F2DE0911602F0911702812F9E85AD854B
:10114000B02F80839183A283B38329813A814B811D
:101150005C81209322023093230240932402509317
:10116000250289859A85AB85BC8580931A02909368
:101170001B02A0931C02B0931D022DEC3CEC4CEC26
:101180005DE3609134027091350280913602909156
:1011900037020E94D00B6B017C0126E636E646E65C
:1011A0005FE3609130017091310180913201909143
:1011B00033010E94D00B9B01AC01C701B6010E9414
:1011C000000A609330017093310180933201909353
:1011D00033010E94E30A6B017A83698361E089E04D
:1011E0000E940901A981BA81AB2B09F0BDC080E042
:1011F0000E94B50040E050E0452B09F4E9CD0E9483
:10120000A501882309F4E4CD0E940000E1CD460148
:101210005701E894B7F82FEF3FEF4FE75FE7C501BD
:10122000B4010E943D0C81110DC02FEF3FEF4FE73D
:101230005FE7C501B4010E946C0A18161CF484E231
:1012400091E05DCE2FEF3FEF4FE75FE4C701B601BE
:101250000E94CB0B18161CF488E291E050CE2FEFC1
:101260003FEF4FE75FECC701B6010E946C0A87FDB4
:10127000F3CF20E030E0A901C701B6010E946C0A5B
:1012800087FF09C06DE285E491E00E94DB01F7FA77
:10129000F094F7F8F0942AE037ED43EA5BE3C701F6
:1012A000B6010E94000A4B015C010E94EA0A6B0130
:1012B0007C010E94190B9B01AC01C501B4010E9485
:1012C000FF094B015C014AE0C701B6010E947302AD
:1012D0006EE285E491E00E94DB0120E030E040E234
:1012E00051E4C501B4010E94D00B4B015C010E9486
:1012F000EA0A6B01F12CE12C4AE0C701B6010E9419
:101300007302C701B6010E94190B9B01AC01C50114
:10131000B4010E94FF0920E030E040E251E40E9465
:10132000D00B0E94EA0A90E080E04AE00E9473023B
:10133000E8CD20912A0230912B0240912C0250914D
:101340002D022D833E834F835887C301B2010E9433
:101350006C0A87FF9DCE8D819E81AF81B88590CE2E
:10136000812C912C5401A5CEE981FA81EF3FF10542
:1013700011F481E03DCFE7EBF0E08491833029F177
:1013800050F48130C1F08230D9F029813A8120387F
:1013900031057CF72CCF873011F1883041F1843052
:1013A000A1F780918000806280938000D0928B00B2
:1013B000C0928A001FCF84B5806884BDC7BC1ACF95
:1013C00084B5806284BDC8BC15CF809180008068E0
:1013D00080938000D0928900C09288000BCF8091CA
:1013E000B00080688093B000C092B30003CF8091BA
:1013F000B00080628093B000C092B400FBCE505821
:10140000BB27AA270E94170A0C94910B0E94830BFA
:1014100038F00E948A0B20F039F49F3F19F426F42B
:101420000C94800B0EF4E095E7FB0C947A0BE92FFB
:101430000E94A20B58F3BA17620773078407950737
:1014400020F079F4A6F50C94C40B0EF4E0950B2E65
:10145000BA2FA02D0B01B90190010C01CA01A00106
:101460001124FF27591B99F0593F50F4503E68F161
:101470001A16F040A22F232F342F4427585FF3CFA2
:10148000469537952795A795F0405395C9F77EF473
:101490001F16BA0B620B730B840BBAF09150A1F0BC
:1014A000FF0FBB1F661F771F881FC2F70EC0BA0F42
:1014B000621F731F841F48F4879577956795B795CA
:1014C000F7959E3F08F0B0CF9395880F08F09927C5
:1014D000EE0F9795879508950E94560B08F481E0CA
:1014E00008950E94850A0C94910B0E948A0B58F073
:1014F0000E94830B40F029F45F3F29F00C947A0B93
:1015000051110C94C50B0C94800B0E94A20B68F334
:101510009923B1F3552391F3951B550BBB27AA27AC
:1015200062177307840738F09F5F5F4F220F331FE6
:10153000441FAA1FA9F335D00E2E3AF0E0E832D0AE
:1015400091505040E695001CCAF72BD0FE2F29D0B1
:10155000660F771F881FBB1F261737074807AB0783
:10156000B0E809F0BB0B802DBF01FF2793585F4FF8
:101570003AF09E3F510578F00C947A0B0C94C50B11
:101580005F3FE4F3983ED4F3869577956795B795DA
:10159000F7959F5FC9F7880F911D9695879597F9E5
:1015A0000895E1E0660F771F881FBB1F621773075E
:1015B0008407BA0720F0621B730B840BBA0BEE1F73
:1015C00088F7E09508950E94EA0A6894B1110C9496
:1015D000C50B08950E94AA0B88F09F5798F0B92F69
:1015E0009927B751B0F0E1F0660F771F881F991F58
:1015F0001AF0BA95C9F714C0B13091F00E94C40B2B
:10160000B1E008950C94C40B672F782F8827B85F3A
:1016100039F0B93FCCF3869577956795B395D9F7AF
:101620003EF490958095709561957F4F8F4F9F4FB9
:101630000895E89409C097FB3EF4909580957095C5
:1016400061957F4F8F4F9F4F9923A9F0F92F96E90E
:10165000BB279395F695879577956795B795F11183
:10166000F8CFFAF4BB0F11F460FF1BC06F5F7F4F20
:101670008F4F9F4F16C0882311F096E911C0772332
:1016800021F09EE8872F762F05C0662371F096E83B
:10169000862F70E060E02AF09A95660F771F881F0A
:1016A000DAF7880F9695879597F90895990F0008AE
:1016B000550FAA0BE0E8FEEF16161706E807F90724
:1016C000C0F012161306E407F50798F0621B730BBF
:1016D000840B950B39F40A2661F0232B242B252B40
:1016E00021F408950A2609F4A140A6958FEF811DE3
:1016F000811D089597F99F6780E870E060E0089584
:101700009FEF80EC089500240A9416161706180619
:101710000906089500240A941216130614060506F5
:101720000895092E0394000C11F4882352F0BB0F86
:1017300040F4BF2B11F460FF04C06F5F7F4F8F4FE9
:101740009F4F089557FD9058440F551F59F05F3F24
:1017500071F04795880F97FB991F61F09F3F79F0D3
:1017600087950895121613061406551FF2CF469555
:10177000F1DF08C0161617061806991FF1CF8695D7
:101780007105610508940895E894BB2766277727BB
:10179000CB0197F908950E94560B08F48FEF089536
:1017A0000E94E30B0C94910B0E94830B38F00E9473
:1017B0008A0B20F0952311F00C947A0B0C94800B7B
:1017C00011240C94C50B0E94A20B70F3959FC1F3DA
:1017D000950F50E0551F629FF001729FBB27F00DDF
:1017E000B11D639FAA27F00DB11DAA1F649F662734
:1017F000B00DA11D661F829F2227B00DA11D621F83
:10180000739FB00DA11D621F839FA00D611D221F3C
:10181000749F3327A00D611D231F849F600D211D20
:10182000822F762F6A2F11249F5750409AF0F1F0A3
:1018300088234AF0EE0FFF1FBB1F661F771F881F0C
:1018400091505040A9F79E3F510580F00C947A0BBF
:101850000C94C50B5F3FE4F3983ED4F386957795DF
:101860006795B795F795E7959F5FC1F7FE2B880FB2
:10187000911D9695879597F908950E94560B880BB0
:10188000990B0895A1E21A2EAA1BBB1BFD010DC0E6
:10189000AA1FBB1FEE1FFF1FA217B307E407F50720
:1018A00020F0A21BB30BE40BF50B661F771F881FFC
:1018B000991F1A9469F760957095809590959B0192
:1018C000AC01BD01CF010895EE0FFF1F0590F4910B
:0818D000E02D0994F894FFCF0C
:1018D8003A013A010000C84200000000DB013B0168
:1018E80068012802990177018B0152504D3A200076
:1018F8006E616E00696E66006F7666000D0A000004
:00000001FF
